:020000040800F2
:1000000000000220591F0008B1050008B3050008D0
:10001000B5050008B7050008B90500080000000094
:10002000000000000000000000000000BB05000808
:10003000BD05000800000000BF050008C10500085C
:10004000A91F0008A91F0008A91F0008A91F000870
:10005000A91F0008A91F0008A91F0008A91F000860
:10006000A91F0008A91F0008A91F0008A91F000850
:10007000A91F0008A91F0008A91F0008A91F000840
:10008000A91F0008A91F0008A91F0008A91F000830
:10009000A91F0008A91F0008A91F0008A91F000820
:1000A000A91F0008A91F0008A91F0008A91F000810
:1000B000A91F0008A91F0008A91F0008A91F000800
:1000C000A91F0008A91F0008A91F0008A91F0008F0
:1000D000A91F0008C9050008A91F0008A91F0008DA
:1000E000A91F0008A91F0008A91F0008A91F0008D0
:1000F000A91F0008A91F0008A91F0008A91F0008C0
:10010000A91F0008A91F0008A91F0008A91F0008AF
:10011000A91F0008A91F0008A91F0008A91F00089F
:10012000A91F0008A91F0008D9050008A91F000879
:10013000A91F0008A91F0008A91F0008A91F00087F
:10014000A91F0008A91F0008A91F0008A91F00086F
:10015000A91F0008A91F0008E9050008A91F000839
:10016000A91F0008A91F0008A91F0008A91F00084F
:10017000A91F0008A91F0008A91F0008000000000F
:08018000A91F0008A91F0008D7
:10019000034613F8012B002AFBD1181A01387047C7
:1001A00001F0FF01102A2BDB10F0070F08D010F828
:1001B000013B013A8B422DD010F0070F42B3F6D12C
:1001C000F0B441EA012141EA014122F007047FF045
:1001D00000070023F0E80256083C85EA010586EA9C
:1001E000010685FA47F5A3FA87F586FA47F6A5FAD8
:1001F00087F68EB9EED1F0BC01F0FF0102F00702E4
:1002000032B110F8013B013A83EA010313B1F8D18E
:100210000020704701387047002D06BF354603386F
:10022000073815F0010F07D1013015F4807F02BFA8
:10023000013015F4C03F0130F0BC0138704700BFF9
:1002400053B94AB9002908BF00281CBF4FF0FF313D
:100250004FF0FF3000F00CB8ADF1080C6DE904CEA2
:1002600002F046FBDDF804E0DDE9022304B070474C
:10027000704700BF0348044B834202D0034B03B1D5
:10028000184770475C0000205C0000200000000060
:100290000548064B1B1AD90F01EBA301491002D0E8
:1002A000034B03B1184770475C0000205C0000203E
:1002B0000000000010B5064C237843B9FFF7DAFFC1
:1002C000044B13B10448AFF300800123237010BD29
:1002D0005C00002000000000B82B000808B5054BAA
:1002E0001BB105490548AFF30080BDE80840FFF7A2
:1002F000CFBF00BF0000000060000020B82B000846
:1003000072B6FEE700B595B03022002108A801F0D2
:10031000ADFE002303930493059306930793019383
:10032000204A116C41F080511164126C02F080522D
:100330000192019A02931C4B1A6842F480421A609F
:100340001B6803F480430293029B012308934FF43C
:100350008033099302220E924FF480030F930423FB
:100360001093602111911292139308A800F002FDDE
:1003700098B90F23039302230493002305934FF4AA
:10038000A05306934FF480530793032103A800F072
:100390005BFF20B915B05DF804FBFFF7B1FFFFF775
:1003A000AFFF00BF003802400070004008B501F008
:1003B0000FFCFFF7A7FF00F039F801F063FC00F035
:1003C0005BF8002001F058FD0249002001F07AFDA1
:1003D000FAE700BFD02B00080268114B9A4200D008
:1003E0007047104B586890F80A321BB90D4B002229
:1003F0001A72704710B501F08BFC18B1094B00223E
:100400001A7210BD074C606801F0F7FC0246616883
:100410000431054800F032FA01232372F1E700BFEE
:1004200000100140881100203801002084B0002213
:100430000192104B196B41F004011963196B01F023
:100440000401019101990292196B41F08001196335
:10045000196B01F080010291029903921A6B42F02C
:1004600001021A631B6B03F001030393039B04B0A7
:10047000704700BF0038024008B50A480A4B0360C5
:100480004FF4E133436000238360C36003610C22B7
:1004900042618361C36100F0C1F900B908BDFFF793
:1004A0002FFFFBE7380100200010014030B589B074
:1004B000002303930493059306930793026803F1C3
:1004C000804303F588339A4201D009B030BD044619
:1004D0000025019503F594335A6C42F010025A64DA
:1004E0005A6C02F010020192019A02951A6B42F0C6
:1004F00001021A631B6B03F001030293029B4FF48A
:10050000C0630393022304930323069307230793F3
:1005100003A9224800F06EFF2148224B03604FF0F0
:100520000063436040238360C5604FF480630361D0
:1005300045618561C5614FF480330362456201F016
:10054000CFF820BB164BA3639C631748174B03607F
:100550004FF00063436000238360C3604FF4806208
:10056000026143618361C3614FF48032026243627E
:1005700001F0B6F870B90C4BE3639C63002211469E
:10058000252001F0A5FA252001F0DAFA9DE7FFF712
:10059000B7FED7E7FFF7B4FEEDE700BF000002406B
:1005A000D8000020B8640240780000204064024077
:1005B000FEE7FEE7FEE7FEE7FEE77047704770479D
:1005C00008B501F01FFB08BD08B5024800F080FA2D
:1005D00008BD00BF3801002008B5024801F078F9D5
:1005E00008BD00BF7800002008B5024801F070F98E
:1005F00008BD00BFD800002082B0002100910B4B45
:100600005A6C42F480425A645A6C02F4804200925E
:10061000009A01911A6C42F080521A641B6C03F02C
:1006200080530193019B02B0704700BF0038024025
:10063000026802F10C0353E8003F23F0C0030C32C0
:1006400042E800310029F3D1202380F8413070477F
:10065000026802F10C0353E8003F23F490730C325C
:1006600042E800310029F3D1026802F1140353E893
:10067000003F23F00103143242E800310029F3D196
:10068000036B012B05D0202380F842300023036345
:100690007047026802F10C0353E8003F23F0100397
:1006A0000C3242E800310029F3D1ECE790F84130F8
:1006B000DBB2212B01D0022070478368B3F5805F45
:1006C00017D0036A5A1C02621A7803685A60C38CF6
:1006D0009BB2013B9BB2C3844BB90268D36823F041
:1006E0008003D3600268D36843F04003D3600020E6
:1006F00070470369002BE4D1036A1B880268C3F3C7
:1007000008035360036A02330362E0E710B504464E
:100710000268136923F44053C1680B431361836873
:1007200002691A4343691A43C3691A430168CB68D3
:1007300023F4164323F00C031343CB600268536980
:1007400023F4407381690B4353610368314A934238
:1007500006D002F58062934202D000F02BFE01E049
:1007600000F038FEE369B3F5004F29D000210318EB
:1007700049411B1841F10001C90041EA5371DB00F6
:10078000181863684FEA83024FEA937341F100013E
:10079000FFF756FD204AA2FB00314909642303FB01
:1007A00011031B013233A2FB03235B0903F0F002A8
:1007B00002EB011203F00F03216813448B6010BD9C
:1007C0000023021843EB0301121841F10001C90094
:1007D00041EA5271D200101841F10001626892188A
:1007E0005B41FFF72DFD0C4AA2FB00314909642350
:1007F00003FB1103DB003233A2FB03235B095A0026
:1008000002F4F87202EB011203F0070321681344AB
:100810008B60D4E7001001401F85EB5160B310B529
:10082000044690F8413013B3242384F84130226801
:10083000D36823F40053D3602046FFF767FF226894
:10084000136923F4904313612268536923F02A0348
:1008500053612268D36843F40053D360002060647E
:10086000202384F8413084F84230606310BD80F862
:100870004030FFF71BFED7E70120704738B513461D
:1008800090F84120D2B2202A36D10446002935D032
:100890000BB9012031E001628384C38400224264E9
:1008A000212084F84100A06B154DC563A06B154D48
:1008B0000564A06B144DC564A06B02652268043208
:1008C000A06B00F073FF30B110236364202384F821
:1008D0004130012011E023686FF040021A60226865
:1008E00002F1140353E8003F43F08003143242E85E
:1008F00000310029F3D100E0022038BD0120FCE7DF
:100900000D090008750900088309000808B50346A9
:10091000806B1B681B6813F4807F1AD10023C3848B
:10092000026802F1140353E8003F23F080031432FD
:1009300042E800310029F3D1026802F10C0353E8C8
:10094000003F43F040030C3242E800310029F3D16C
:1009500008BDFFF741FDFBE708B50168CA6822F052
:100960004002CA60202280F84120FFF735FD0020B8
:1009700008BD704708B5806BFFF7FBFF08BD7047E7
:10098000704710B5846B23685A6994F84130DBB224
:10099000212B10D023685A6902F0400294F84230AB
:1009A000DBB2222B11D0636C43F01003636420464A
:1009B000FFF7E6FF10BD02F08002002AEAD0002314
:1009C000E3842046FFF734FEE4E7002AEBD000235F
:1009D000E3852046FFF73CFEE5E708B5806B002382
:1009E000C385FFF7CDFF08BD704790F84230DBB2FA
:1009F000222B69D18368B3F5805F4FD0826AB3F54B
:100A0000805F04D0002B56D10369002B53D10368BB
:100A10005B681370836A01338362C38D9BB2013BB1
:100A20009BB2C385002B51D100B583B00268D36857
:100A300023F02003D3600268D36823F48073D3606B
:100A40000268536923F001035361202380F8423088
:100A500000234363036B012B33D10023036302683C
:100A600002F10C0353E8003F23F010030C3242E87C
:100A700000310029F3D103681A6812F0100F06D074
:100A8000002201921A6801925B680193019B818D9B
:100A9000FFF7AAFF002003B05DF804FB0269002AFB
:100AA000ACD1826A03685B68C3F308031380836A6E
:100AB00002338362B1E703685B6803F07F0313705E
:100AC000A8E7FFF75CFFE5E70220704700207047CA
:100AD00030B583B0044602681368D068516913F0DA
:100AE0000F0505D113F0200F02D010F0200F19D1FF
:100AF0002DB111F0010119D110F4907F16D1216BA5
:100B000001297DD013F0800F03D010F0800F40F04A
:100B1000268113F0400F03D010F0400F40F02381E6
:100B200003B030BD2046FFF760FFF9E713F0010F77
:100B300006D010F4807F03D0626C42F00102626440
:100B400013F0040F04D019B1626C42F00202626427
:100B500013F0020F04D019B1626C42F00402626417
:100B600013F0080F07D010F0200F00D119B1626CFC
:100B700042F008026264626C002AD1D013F0200FA8
:100B800002D010F0200F29D123685B6903F04003E5
:100B9000626C12F0080F00D163B32046FFF758FDD6
:100BA00023685B6913F0400F20D0226802F1140320
:100BB00053E8003F23F04003143242E8003100299B
:100BC000F3D1E36B73B16A4A1A65E06B00F06DFE16
:100BD0000028A5D0E06B036D9847A1E72046FFF7FA
:100BE00004FFD1E72046FFF7CBFE99E72046FFF749
:100BF000C7FE95E72046FFF7C3FE002363648FE737
:100C000013F0100F3FF47EAF10F0100F3FF47AAFE7
:100C1000002301931368019353680193019B536967
:100C200013F0400F5FD0E26B13685B689BB2002B40
:100C30004AD0A18D994247D9E385D369B3F5807F26
:100C400037D0226802F10C0353E8003F23F480738D
:100C50000C3242E800310029F3D1226802F114037A
:100C600053E8003F23F00103143242E80031002929
:100C7000F3D1226802F1140353E8003F23F040034C
:100C8000143242E800310029F3D1202384F84230A5
:100C900000232363226802F10C0353E8003F23F092
:100CA00010030C3242E800310029F3D1E06B00F070
:100CB000B2FD02236363A18DE38D9BB2C91A89B291
:100CC0002046FFF791FE2BE7A18D99427FF428AFD4
:100CD000D369B3F5807F7FF423AF0223636320469B
:100CE000FFF782FE1CE7A18DE38D9BB2C91A89B282
:100CF000E38D9BB2002B3FF413AF00293FF410AFFC
:100D0000226802F10C0353E8003F23F490730C3285
:100D100042E800300028F3D1226802F1140353E8BE
:100D2000003F23F00103143242E800300028F3D1E1
:100D3000202384F8423000232363226802F10C034D
:100D400053E8003F23F010030C3242E80030002843
:100D5000F3D1022363632046FFF746FEE0E6204618
:100D6000FFF7A4FCDCE62046FFF7F6FDD8E600BF5F
:100D7000DB090008002800F0E08170B582B004466D
:100D8000036813F0010F3BD09F4B9B6803F00C03EB
:100D9000042B2CD09C4B9B6803F00C03082B21D018
:100DA0006368B3F5803F4FD0B3F5A02F52D0964B78
:100DB0001A6822F480321A601A6822F480221A60BB
:100DC0006368002B50D000F029FF05468E4B1B684E
:100DD00013F4003F14D100F021FF401B6428F5D923
:100DE0000320B1E1884B5B6813F4800FD8D0864BA9
:100DF0001B6813F4003F03D06368002B00F09F8151
:100E0000236813F0020F54D07F4B9B6813F00C0F34
:100E10003ED07D4B9B6803F00C03082B33D0E36876
:100E2000002B68D0794B01221A6000F0F7FE0546CE
:100E3000754B1B6813F0020F54D100F0EFFE401BFE
:100E40000228F5D903207FE16F4A136843F4803309
:100E50001360B5E76C4B1A6842F480221A601A6876
:100E600042F480321A60ABE700F0D8FE0546664BCC
:100E70001B6813F4003FC3D000F0D0FE401B642871
:100E8000F5D9032060E1604B5B6813F4800FC6D195
:100E90005D4B1B6813F0020F03D0E368012B40F099
:100EA0005081594A136823F0F803216943EAC103CA
:100EB0001360236813F0080F42D063696BB3534B80
:100EC0000122C3F8802E00F0A9FE05464E4B5B6F51
:100ED00013F0020F34D100F0A1FE401B0228F5D917
:100EE000032031E1484A136823F0F803216943EAFB
:100EF000C1031360DDE7454B00221A6000F08EFE4F
:100F00000546414B1B6813F0020FD2D000F086FE5D
:100F1000401B0228F5D9032016E13C4B0022C3F800
:100F2000802E00F07BFE0546374B5B6F13F0020FFF
:100F300006D000F073FE401B0228F5D9032003E120
:100F4000236813F0040F77D02F4B1B6C13F0805FD6
:100F500033D1002301932C4B1A6C42F080521A6457
:100F60001B6C03F080530193019B0125284B1B68E8
:100F700013F4807F23D0A368012B34D0052B38D005
:100F8000214B1A6F22F001021A671A6F22F0040235
:100F90001A67A368002B3DD000F040FE06461A4BAE
:100FA0001B6F13F0020F46D100F038FE801B41F298
:100FB00088339842F3D90320C6E00025D6E7144AC7
:100FC000136843F48073136000F028FE0646104B4C
:100FD0001B6813F4807FCED100F020FE801B022816
:100FE000F5D90320B0E0084A136F43F001031367FB
:100FF000CFE7054B1A6F42F004021A671A6F42F0EE
:1010000001021A67C5E700BF0038024000004742EE
:101010000070004000F002FE0646524B1B6F13F0BA
:10102000020F08D000F0FAFD801B41F2883398428D
:10103000F3D9032088E0EDB9A369002B00F0838089
:10104000484A926802F00C02082A51D0022B17D0AD
:10105000454B00221A6600F0E1FD0446414B1B6837
:1010600013F0007F42D000F0D9FD001B0228F5D913
:10107000032069E03B4A136C23F080531364DBE7E1
:10108000394B00221A6600F0C9FD0546354B1B6836
:1010900013F0007F06D000F0C1FD401B0228F5D9F7
:1010A000032051E0E369226A1343626A43EA821330
:1010B000A26A5208013A43EA0243E26A43EA02633F
:1010C000284A5360284B01221A6600F0A7FD044607
:1010D000244B1B6813F0007F06D100F09FFD001B1E
:1010E0000228F5D903202FE000202DE000202BE07E
:1010F000012B2BD01B4B5B6803F48001E26991420A
:1011000026D103F03F02216A8A4223D1616A47F661
:10111000C0721A40B2EB811F1ED103F44031A26AA3
:101120005208013AB1EB024F18D103F07063E26A42
:10113000B3EB026F14D1002006E0012070470120BC
:1011400002E0012000E0002002B070BD0120FBE7BA
:101150000120F9E70120F7E70120F5E70120F3E797
:101160000120F1E7003802400000474208B5334B48
:101170009B6803F00C03042B5BD0082B5BD12F4B37
:101180005A6802F03F025B6813F4800F2CD02B4B9F
:101190005868C0F388104FEA401CBCEB000C6EEBA3
:1011A0000E0E4FEA8E1343EA9C634FEA8C11B1EBAB
:1011B0000C0163EB0E03DB0043EA5173C90011EB32
:1011C000000C43F10003590200234FEA4C2041EA8E
:1011D000DC51FFF735F8194B5B68C3F3014301336A
:1011E0005B00B0FBF3F027E0144B5868C0F38810A5
:1011F0004FEA401CBCEB000C6EEB0E0E4FEA8E1358
:1012000043EA9C634FEA8C11B1EB0C0163EB0E03D4
:10121000DB0043EA5173C90011EB000C43F10003FA
:10122000990200234FEA8C2041EA9C51FFF708F80D
:10123000D1E7034800E0034808BD00BF0038024082
:1012400000127A000024F400002800F09B8070B5A2
:101250000D4604464F4B1B6803F007038B4208D230
:10126000CBB24C4A1370136803F007038B4240F073
:101270008B80236813F0020F17D013F0040F04D0F3
:10128000454A936843F4E0539360236813F0080FD2
:1012900004D0414A936843F4604393603E4A9368A4
:1012A00023F0F003A1680B439360236813F0010F50
:1012B00032D06368012B21D09A1E012A25D9364AE3
:1012C000126812F0020F61D033498A6822F00302DB
:1012D00013438B6000F0A2FC06462F4B9B6803F083
:1012E0000C036268B3EB820F16D000F097FC801BF2
:1012F00041F288339842F0D9032042E0264A12682E
:1013000012F4003FE0D101203BE0234A126812F0C2
:10131000007FD9D1012034E01E4B1B6803F0070386
:10132000AB4207D9EAB21B4B1A701B6803F00703E4
:10133000AB422DD1236813F0040F06D0164A9368F0
:1013400023F4E053E1680B439360236813F0080F24
:1013500007D0114A936823F46043216943EAC1032B
:101360009360FFF703FF0C4B9B68C3F303130B4A17
:10137000D35CD8400A4B18600A4B186800F002FC96
:10138000002070BD012070470120FAE70120F8E736
:101390000120F6E7003C024000380240E82B00083C
:1013A0000800002004000020014B1868704700BFAF
:1013B0000800002008B5FFF7F7FF044B9B68C3F354
:1013C0008223034AD35CD84008BD00BF00380240E6
:1013D000F82B000808B5FFF7E7FF044B9B68C3F341
:1013E0004233034AD35CD84008BD00BF00380240F6
:1013F000F82B000800230F2B00F2E98070B582B0B3
:1014000065E085684FEA430E032404FA0EF425EAEA
:101410000405CC6804FA0EF42C438460446824EA82
:1014200002044A68C2F300129A40224342605CE020
:10143000DC08083450F8242003F00705AD004FF015
:101440000F0E0EFA05FE22EA0E0E0A69AA4042EAC3
:101450000E0240F824205CE0072200E0002202FA9D
:101460000EF22A4302345A4D45F82420594A946812
:101470006FEA0C0224EA0C054E6816F4801F01D0B6
:101480004CEA0405534CA560E46802EA04054E6882
:1014900016F4001F01D04CEA04054E4CE560646868
:1014A00002EA04054E6816F4003F01D04CEA040538
:1014B000484C6560246822404D6815F4803F01D097
:1014C0004CEA0402434C226001330F2B7DD80122E9
:1014D0009A400C6804EA020C32EA0404F4D14C6825
:1014E00004F00304013C012C8BD94A6802F003028A
:1014F000032A09D0C4685D000322AA4024EA02043A
:101500008A68AA402243C2604A6802F00302022AA3
:101510008ED004684FEA430E032202FA0EF224EA48
:1015200002044A6802F0030202FA0EF22243026049
:101530004A6812F4403FC7D000220192264A546CF8
:1015400044F480445464526C02F480420192019A43
:101550009C08A51C1E4A52F8255003F0030E4FEAC2
:101560008E0E0F2202FA0EF225EA02051B4A904265
:101570003FF474AF02F5806290421AD002F58062A7
:10158000904218D002F58062904216D002F5806237
:10159000904214D002F58062904212D002F580622F
:1015A000904210D002F5806290423FF455AF08227D
:1015B00055E7012253E7022251E703224FE70422B5
:1015C0004DE705224BE7062249E702B070BD7047A0
:1015D00000380140003C0140003802400000024059
:1015E00030B405682C6824F480242C60046863609F
:1015F0008368402B05D0036899600368DA6030BCCB
:10160000704703689A600368D960F8E710B403680C
:10161000D9B210390C4AA2FB014212090B4CA25C50
:10162000C2655F2909D923F47F7323F003030433D0
:101630008365806D5DF8044B704723F47F7323F05E
:1016400003038365F5E700BFABAAAAAAE02B000855
:10165000836A826992B9012B0AD0022B02D00BB1A6
:1016600000207047C36A13F0807F28D100207047A4
:10167000C36AB3F1C07F24D000207047B2F5005F89
:1016800009D0022B25D9032B25D1C36A13F0807F03
:1016900023D100207047032B03D8DFE803F01404A4
:1016A000140A00207047C36A13F0807F0DD1002018
:1016B0007047C36AB3F1C07F09D000207047012092
:1016C00070470120704701207047012070470120BA
:1016D00070470120704700207047012070470000CC
:1016E00070B5044600F09AFA002C5BD00546022340
:1016F00084F83530002384F834302268136823F0EE
:101700000103136023681A6812F0010F0AD000F079
:1017100085FA431B052BF5D920236365032084F844
:10172000350070BD1A68204911406268A068024304
:10173000E06802432069024360690243A0690243F2
:10174000E0690243206A02430A43616A04291ED009
:101750001A602668756925F00705636A1D43042B26
:1017600007D1A36A1D43E36A1BB12046FFF770FF50
:1017700090B975612046FFF749FFE26D3F23934022
:10178000836000206065012384F83530C9E7E16A91
:10179000206B01430A43DBE740236365012084F8A3
:1017A0003500BEE70120BCE73F8010F038B50446A5
:1017B000856D90F8340001282BD0012084F8340086
:1017C00094F83500C0B2012804D0002384F83430E6
:1017D000022038BD022084F83500002060652046D4
:1017E000FFF7FEFEE26D3F239340AB602268136873
:1017F00043F016031360236C23B12268136843F08F
:10180000080313602268136843F00103136000208B
:10181000DFE70220DDE770B50446866D00F0FEF9D3
:1018200094F83530DBB2022B06D0802363650023A9
:1018300084F83430012070BD05462268136823F017
:10184000160313602268536923F080035361236CED
:10185000E3B12268136823F0080313602268136859
:1018600023F00103136023681B6813F0010F11D0EC
:1018700000F0D4F9431B052BF5D920236365032021
:1018800084F83500002384F83430D4E7A36C002BAF
:10189000DFD1E3E7E26D3F239340B360012384F897
:1018A0003530002084F83400C5E790F83530DBB2DD
:1018B000022B03D08023436501207047052380F865
:1018C00035300268136823F001031360002070476D
:1018D000F0B583B0044600230193724B1D68724B30
:1018E000A3FB0535AD0A876D3E68C26D08239340A2
:1018F000334210D003681A6812F0040F0BD01A6834
:1019000022F004021A60C26D08239340BB60436D4D
:1019100043F001034365E26D01239340334209D054
:101920002268526912F0800F04D0BB60636D43F0EF
:1019300002036365E26D04239340334209D02268B9
:10194000126812F0020F04D0BB60636D43F0040311
:101950006365E26D10239340334224D022681268FD
:1019600012F0080F1FD0BB6023681A6812F4802F92
:101970000DD01B6813F4002F04D1236C9BB12046BB
:10198000984710E0A36C73B1204698470BE01A68A3
:1019900012F4807F03D11A6822F008021A60236CC7
:1019A0000BB120469847E26D20239340334255D037
:1019B0002268126812F0100F50D0BB6094F83530D6
:1019C000DBB2052B0ED023681A6812F4802F33D0B7
:1019D0001B6813F4002F2AD1636C002B3ED02046E5
:1019E00098473BE02268136823F0160313602268CF
:1019F000536923F080035361236CA3B122681368F9
:101A000023F008031360E26D3F239340BB60012382
:101A100084F83530002384F83430236D002B3FD018
:101A2000204698473CE0A36C002BE7D1EBE7E36B43
:101A3000A3B12046984711E01A6812F4807F09D1BB
:101A40001A6822F010021A60012384F8353000234E
:101A500084F83430E36B0BB120469847636DFBB1DB
:101A6000636D13F0010F17D0052384F83530226819
:101A7000136823F001031360019B01330193AB4210
:101A800004D823681B6813F0010FF5D1012384F8F3
:101A90003530002384F83430E36C0BB1204698478E
:101AA00003B0F0BD08000020B5814E1B074AD36883
:101AB00023F4E0631B041B0C000200F4E06003430A
:101AC00043F0BF6343F40033D360704700ED00E0A0
:101AD00000B5194BDB68C3F30223C3F1070CBCF15B
:101AE000040F28BF4FF0040C03F1040EBEF1060FE3
:101AF00018D9033B4FF0FF3E0EFA0CFC21EA0C0113
:101B000099400EFA03FE22EA0E020A4300280BDB7C
:101B10001201D2B200F1604000F5614080F800236C
:101B20005DF804FB0023E5E700F00F001201D2B2DC
:101B3000024B1A54F4E700BF00ED00E014ED00E0A2
:101B4000002807DB00F01F02400901239340024AEE
:101B500042F82030704700BF00E100E00138B0F1EA
:101B6000807F0BD24FF0E0235861054AF02182F8C4
:101B700023100020986107221A61704701207047E6
:101B800000ED00E010B504460E4B1A784FF47A735E
:101B9000B3FBF2F30C4A1068B0FBF3F0FFF7DEFF83
:101BA00068B90F2C01D901200AE0002221464FF02C
:101BB000FF30FFF78DFF054B1C60002000E0012087
:101BC00010BD00BF0000002008000020040000201D
:101BD00008B50B4B1A6842F400721A601A6842F496
:101BE00080621A601A6842F480721A600320FFF75C
:101BF0005DFF0F20FFF7C6FFFEF7FEFC002008BDCB
:101C0000003C0240034A1168034B1B780B441360ED
:101C1000704700BF8001002000000020014B1868C1
:101C2000704700BF80010020034AD2F8883043F497
:101C30007003C2F88830704700ED00E010B503462D
:101C40000C4A0D490D48006840B10C480068034437
:101C5000521A934206D8094A136010BD0748084C2F
:101C60000460F2E700F0FCF90C2303604FF0FF3052
:101C7000F3E700BF00000220000400008401002000
:101C8000E814002010B582B0002401940D4B1A6BAB
:101C900042F480021A631B6B03F480030193019BDF
:101CA000224621463A20FFF713FF3A20FFF748FF6C
:101CB000224621464620FFF70BFF4620FFF740FF54
:101CC00002B010BD00380240002301E001300133B2
:101CD000934203D20028F9D00170F7E7704770B53E
:101CE000ADF5047D04460E4615464FF403720021FF
:101CF00001A8FFF7E9FF0196ADF80C524FF403720B
:101D000001A9204600F09EF920460DF5047D70BD26
:101D1000B0F80422B0F80602824214BF002001206D
:101D20007047B0F806320133B0F8082293FBF2F1A5
:101D300002FB1133B0F80402834214BF00200120DB
:101D400070472DE9F04104460D461646002380F801
:101D50000A32B0F80682B0F80472B8450ED9B0F86D
:101D60000802A7EB0807384480B2013880B2B042BD
:101D700028BF304680B24FF0000C1CE0B84508D0B8
:101D8000B84510D2FFF7CDFF78B9A7EB0807B8B276
:101D9000EDE70023A0F80632A0F80432B0F80802FC
:101DA000013880B2E3E70020E1E70020DFE70CF133
:101DB000010C1FFA8CFC84451AD2B4F8063203F1E8
:101DC000010EB4F808129EFBF1F201FB12EEB4F81A
:101DD00004229645EBD05A1CA4F80622B3FBF1F27C
:101DE00001FB12339BB215F80C202168CA54DEE7C0
:101DF000012384F80A32BDE8F0810246B0F80632C9
:101E0000B0F804128B422AD9581A80B2B0F5007F7C
:101E100028BF4FF40070002181422BD210B5B2F8D8
:101E20000432B2F808E2B3FBFEFC0EFB1C3C1FFAC6
:101E30008CFC146814F80C4002EB010C8CF8044084
:101E400001339BB2A2F80432B3FBFEFC0EFB1C3341
:101E5000A2F80432013189B28142E0D310BD8B4235
:101E600006D2B0F80802411A13FA81F398B2CDE70E
:101E70000020CBE77047000070B5ADF5047D064645
:101E80000E4D41F20C020021284600F0EFF805F556
:101E9000805426700A4E4FF40062A9186846FFF776
:101EA0001EFF4FF403726946304600F0CBF86660BF
:101EB000002323720DF5047D70BD00BF8801002052
:101EC000941100200EB430B5ADF5027D044600211A
:101ED00002914FF4FE7203A800F0C8F81A4B1B7869
:101EE000A34205D20DF5027DBDE8304003B0704736
:101EF00086AB0193144D2A7802AC144B53F8221090
:101F0000204600F077F8019A85990DF10E0000F057
:101F10008FF880B206300A2323542046FEF738F9A2
:101F2000421C21460A48FFF70CFF2B7A002BD9D11F
:101F3000074C2046FFF761FF0246211D0548FEF7CA
:101F40009DFC01222A72CDE788110020182C000880
:101F50009411002038010020DFF834D0FFF764FE30
:101F60000C480D490D4A002302E0D458C4500433F4
:101F7000C4188C42F9D30A4A0A4C002301E01360CA
:101F80000432A242FBD300F011F8FEF70FFA7047BB
:101F900000000220000000205C000020682C0008E7
:101FA0005C000020E8140020FEE7000070B50D4D35
:101FB0000D4C641BA4100026A64209D10B4D0C4CFD
:101FC00000F0FAFD641BA4100026A64205D170BDE6
:101FD00055F8043B98470136EEE755F8043B98471F
:101FE0000136F2E7602C0008602C0008602C000825
:101FF000642C0008034611F8012B03F8012B002A7A
:10200000F9D1704700B59BB0009104916FF0004189
:102010000591029105490391694600F08BF8009BF8
:1020200000221A701BB05DF804FB00BF0802FFFF1E
:1020300013460A46014602480068FFF7E3BF00BFA7
:10204000580000200A44914200F1FF3300D170474C
:1020500010B511F8014B03F8014F9142F9D110BDB1
:10206000014B1868704700BF580000200244034627
:10207000934200D1704703F8011BF9E7704770479E
:102080002DE9F0478E681F46BE420B6882460C461B
:1020900090462CD88A8912F4906F26D06569096918
:1020A00005EB4505A3EB010905EBD5757B1C4B44FE
:1020B0006D109D4238BF1D46530527D5294600F0B7
:1020C000E7FA064660B321694A46FFF7BBFFA389DA
:1020D00023F4906343F08003A381266165614E443D
:1020E000A5EB09052660A5603E46BE4200D93E46E6
:1020F00020683246414600F05DFBA3689B1BA3604D
:102100002368334423600020BDE8F0872A4600F0AE
:102110006BFB06460028E0D12169504600F094FB95
:102120000C23CAF80030A38943F04003A3814FF089
:10213000FF30E9E72DE9F04F98468B891B069DB0EB
:1021400007460D4614460ED50B6963B9402100F0D1
:102150009FFA2860286120B90C233B604FF0FF30C4
:10216000D0E040236B610023099320238DF82930B0
:10217000CDF80C803023DFF8A4818DF82A304FF0A1
:10218000010923469A4613F8012B0AB1252AF9D1F1
:10219000BAEB040B0BD05B46224629463846FFF7C4
:1021A0006FFF013000F0A980099A5A4409929AF809
:1021B0000030002B00F0A18000234FF0FF32CDE96A
:1021C00005230AF1010A049307938DF853301A93FB
:1021D0005446052214F8011B5048FDF7E1FF049A0C
:1021E000D8B9D00644BF20238DF85330110744BF1F
:1021F0002B238DF853309AF800302A2B15D0079AEC
:10220000544600204FF00A0C214611F8013B303BA8
:10221000092B4DD9B0B1079214E0A0EB080309FADD
:1022200003F313430493A246D2E7039B191D1B68D3
:102230000391002BBBBF5B4242F00202079307935E
:10224000B8BF049223782E2B0CD163782A2B34D17B
:10225000039B1A1D1B680392002BB8BF4FF0FF337E
:1022600002340593DFF8C4A0217803225046FDF71D
:1022700097FF38B1049BA0EB0A0040228240134331
:102280000134049314F8011B25488DF82810062208
:10229000FDF786FF002838D0224B1BBB039B07337A
:1022A00023F0070308330393099B3344099368E73A
:1022B0000CFB02320C460120A6E7002301340593F3
:1022C00019464FF00A0C204610F8012B303A092A23
:1022D00003D9002BC6D00591C4E70CFB01210446AD
:1022E0000123F0E703AB00932A460F4B04A93846BD
:1022F000AFF30080421C0646D6D1AB895B063FF5A2
:102300002DAF09981DB0BDE8F08F03AB00932A46AE
:10231000054B04A9384600F079F8EBE7242C0008B7
:102320002E2C000800000000812000082A2C000844
:102330002DE9F047164699468A680B69DDF820803A
:102340009342B8BF1346336091F8432007460C46CA
:102350000AB1013333602368990642BF3368023300
:102360003360256815F0060506D104F1190AE36803
:1023700032689B1AAB4226DC94F84320131E226875
:1023800018BF012392062BD404F143024946384674
:10239000C04701301ED02368226903F00603042BD6
:1023A00002BFE5683368ED1AA3680CBF25EAE5753E
:1023B00000259342C4BF9B1AED1800261A34B5427B
:1023C0001AD1002008E00123524649463846C0474A
:1023D000013003D14FF0FF30BDE8F0870135C6E78B
:1023E000E1185A1C302081F84300224494F845102B
:1023F00082F843100233C7E7012322464946384694
:10240000C0470130E6D00136D9E700002DE9FF478B
:102410000F7E0C9D782F914680460C469A4601F11E
:10242000430207D8622F0AD8002F00F0D480582F1B
:1024300000F0C08004F1420584F842703AE0A7F150
:102440006303152BF6D801A151F823F0A524000849
:10245000B924000835240008352400083524000874
:1024600035240008B9240008352400083524000864
:102470003524000835240008BD250008E52400089F
:10248000772500083524000835240008DF250008DA
:1024900035240008E5240008352400083524000808
:1024A0007F2500082B681A1D1B682A6004F142056D
:1024B00084F8423001239FE020682B68070603F16F
:1024C0000401296001D51E6803E04606FBD5B3F977
:1024D0000060002E03DA2D23764284F843305A48F8
:1024E0000A2312E02B682068191D2960050601D512
:1024F0001E6802E04106FBD51E8853486F2F0CBFB3
:1025000008230A23002184F843106568A560002D84
:10251000A2BF216821F0040121600EB9002D4BD02B
:102520001546B6FBF3F103FB1167C75D05F8017DA6
:102530003746BB420E46F4D9082B0BD12368DE0781
:1025400008D5236961689942DEBF302305F8013C54
:1025500005F1FF35521B2261CDF800A04B4603AABE
:1025600021464046FFF7E4FE01304AD14FF0FF30EC
:1025700004B0BDE8F087236843F0200323603348AC
:10258000782784F84570236829681F0651F8046B82
:1025900002D45F0648BFB6B2DF0748BF43F020034E
:1025A000296048BF23601EB9236823F020032360FD
:1025B0001023A7E72448E4E71546BDE72B68266803
:1025C0006169181D286035061B6801D5196002E095
:1025D0007006FBD51980002323611546BCE72B68E4
:1025E0001A1D2A601D68626800212846FDF7D8FD83
:1025F00008B1401B606063682361002384F84330A6
:10260000AAE723692A4649464046D0470130ADD063
:1026100023689B0713D4E068039B9842B8BF184611
:10262000A6E70123324649464046D04701309DD0B7
:102630000135E36803995B1AAB42F2DCEBE7002556
:1026400004F11906F5E700BF352C0008462C0008F8
:1026500070B50E4E0C463168054611B900F09AF877
:1026600030602146284600F095F8431C0AD0C41C6F
:1026700024F00304A04207D0211A284600F08AF86B
:10268000013001D14FF0FF34204670BDE41400202A
:102690002DE9F041CD1C25F0030508350C2D38BF80
:1026A0000C25002D074601DBA94205D90C233B6010
:1026B00000263046BDE8F0812F4E00F05FF8336809
:1026C0001C4644BB29463846FFF7C2FF431C04465C
:1026D0004FD134682646002E42D1002C43D02368C7
:1026E0003146384604EB030800F054F880453AD1EF
:1026F00023680335ED1A25F0030508350C2D38BF86
:102700000C2529463846FFF7A3FF01302BD023685C
:102710002B4423600EE02268521B1ED40B2A16D9CC
:102720006119A342256018BF5960636808BF316012
:1027300062514B60384604F10B0600F025F826F094
:102740000706231DF21AB4D09B1BA350B1E76268A1
:10275000A3420CBF32605A60ECE723466468B0E7DE
:1027600034467668B7E70C233B60384600F00CF837
:102770009FE72560DEE700BFE01400200148FFF777
:102780007DBC00BFD81400200148FFF778BC00BF13
:10279000D814002038B5064D0023044608462B60A7
:1027A000FFF74CFA431C02D12B6803B1236038BDFC
:1027B000DC140020884210B501EB020402D98442E7
:1027C000234607D8431EA14208D011F8012B03F875
:1027D000012FF8E7024401468A4200D110BD13F8E8
:1027E000014D02F8014DF7E72DE9F041804614460E
:1027F0000E4621B9BDE8F0411146FFF749BF2AB99D
:1028000000F022F825462846BDE8F08100F068F87F
:102810008442074602D8B4EB500F12D821464046F6
:10282000FFF736FF05460028EDD0BC422246314670
:1028300028BF3A46FFF706FC3146404600F004F850
:10284000E1E73546DFE7000037B5002944D051F80D
:10285000043C0190002BA1F10404B8BFE418FFF779
:102860008DFF1E4A0198136833B96360146003B08A
:10287000BDE83040FFF788BFA34208D92568611939
:102880008B4201BF19685B6849192160EDE71A4660
:102890005B680BB1A342FAD911685518A5420BD158
:1028A000246821445418A3421160E0D11C685B687D
:1028B00053600C441460DAE702D90C230360D6E7B6
:1028C000256861198B4204BF19685B68636004BFA7
:1028D000491921605460CAE703B030BDE0140020FC
:1028E00051F8043C181F002BBCBF0B58C018704790
:1028F0002DE9F047089E0D4604460F46002B4AD1AD
:102900008A42944665D9B2FA82F343B102FA03FCD3
:10291000C3F120029F4020FA02F217439C404FEA85
:102920001C4E1FFA8CF5B7FBFEF1220C0EFB117743
:1029300042EA074201FB05F090420AD91CEB020271
:1029400001F1FF3780F01C81904240F21981023979
:102950006244121AA4B2B2FBFEF00EFB102244EA4B
:10296000024400FB05F5A5420AD91CEB040400F162
:10297000FF3280F00781A54240F2048164440238AE
:1029800040EA0140641B00211EB1DC400023C6E97F
:102990000043BDE8F0878B4208D9002E00F0ED809F
:1029A0000021C6E900050846BDE8F087B3FA83F1C7
:1029B000002949D1AB4202D3824200F2F880841A46
:1029C00065EB030201201746002EE2D0C6E900475E
:1029D000DFE702B9FFDEB2FA82F3002B40F090800D
:1029E0008A1A4FEA1C471FFA8CFE0121B2FBF7F549
:1029F00007FB1520220C42EA00420EFB05F0904234
:102A000008D91CEB020205F1FF3802D2904200F215
:102A1000CB804546121AA4B2B2FBF7F007FB102296
:102A200044EA02440EFB00FEA64508D91CEB040450
:102A300000F1FF3202D2A64500F2BB801046A4EBA3
:102A40000E0440EA05409FE7C1F120078B4022FABF
:102A500007FC4CEA030C05FA01F420FA07F3FD40E9
:102A60004FEA1C492343B5FBF9F81FFA8CFE09FB1A
:102A700018551C0C44EA054408FB0EF5A54202FA61
:102A800001F200FA01F00BD91CEB040408F1FF3A43
:102A900080F08880A54240F28580A8F10208644455
:102AA000641B9DB2B4FBF9F309FB134445EA0444EB
:102AB00003FB0EFEA64508D91CEB040403F1FF3509
:102AC0006CD2A6456AD9023B644443EA0843A3FB9F
:102AD0000295A4EB0E04AC42C846AE4656D353D082
:102AE00056B1B0EB080264EB0E0404FA07F7CA40D3
:102AF000CC401743C6E9007418460021BDE8F087B2
:102B0000C3F1200102FA03FC20FA01F225FA01F1D7
:102B10009D402A434FEA1C471FFA8CFEB1FBF7F099
:102B200007FB1015110C41EA054100FB0EF58D4223
:102B300004FA03F408D91CEB010100F1FF382FD28D
:102B40008D422DD902386144491B92B2B1FBF7F591
:102B500007FB151142EA014205FB0EF1914208D92B
:102B60001CEB020205F1FF3816D2914214D9023D46
:102B70006244521A45EA004138E73146304608E7D8
:102B80003946E6E61046FBE64845A9D2B9EB02080D
:102B900065EB0C0E013BA3E74546EAE72B4694E7BD
:102BA0004046D1E7D0467BE7023D624432E7084623
:102BB0000AE76444023842E7F8B500BFF8BC08BC35
:102BC0009E467047F8B500BFF8BC08BC9E467047EB
:102BD00048656C6C6F20776F726C64212121000056
:102BE000000610160006101600000000000000008D
:102BF00001020304060708090000000001020304A3
:102C0000494E464F3A2000005741524E3A200000AC
:102C10004552524F523A0000002C0008082C000880
:102C2000102C0008232D302B2000686C4C006566AA
:102C3000674546470030313233343536373839410D
:102C40004243444546003031323334353637383923
:082C5000616263646566000027
:082C580098FCFF7F0100000061
:042C6000DD02000889
:042C6400B5020008AD
:102C680001000000100000000024F4000000000033
:102C7800A013002008140020701400200000000099
:102C8800000000000000000000000000000000003C
:102C9800000000000000000000000000000000002C
:102CA800000000000000000000000000000000001C
:0C2CB80000000000000000000C000020E4
:0400000508001F5977
:00000001FF
